{
  "contractName": "bettingApp",
  "abi": [
    {
      "inputs": [],
      "stateMutability": "nonpayable",
      "type": "constructor"
    },
    {
      "anonymous": false,
      "inputs": [
        {
          "indexed": true,
          "internalType": "address",
          "name": "player",
          "type": "address"
        },
        {
          "indexed": false,
          "internalType": "uint256",
          "name": "amount",
          "type": "uint256"
        },
        {
          "indexed": false,
          "internalType": "uint8",
          "name": "teamSelected",
          "type": "uint8"
        }
      ],
      "name": "BetPlaced",
      "type": "event"
    },
    {
      "anonymous": false,
      "inputs": [
        {
          "indexed": false,
          "internalType": "uint16",
          "name": "winningTeam",
          "type": "uint16"
        }
      ],
      "name": "PrizesDistributed",
      "type": "event"
    },
    {
      "inputs": [],
      "name": "maxPlayers",
      "outputs": [
        {
          "internalType": "uint256",
          "name": "",
          "type": "uint256"
        }
      ],
      "stateMutability": "view",
      "type": "function",
      "constant": true
    },
    {
      "inputs": [],
      "name": "maximumBet",
      "outputs": [
        {
          "internalType": "uint256",
          "name": "",
          "type": "uint256"
        }
      ],
      "stateMutability": "view",
      "type": "function",
      "constant": true
    },
    {
      "inputs": [],
      "name": "minimumBet",
      "outputs": [
        {
          "internalType": "uint256",
          "name": "",
          "type": "uint256"
        }
      ],
      "stateMutability": "view",
      "type": "function",
      "constant": true
    },
    {
      "inputs": [],
      "name": "owner",
      "outputs": [
        {
          "internalType": "address",
          "name": "",
          "type": "address"
        }
      ],
      "stateMutability": "view",
      "type": "function",
      "constant": true
    },
    {
      "inputs": [
        {
          "internalType": "address",
          "name": "",
          "type": "address"
        }
      ],
      "name": "playerInfo",
      "outputs": [
        {
          "internalType": "uint256",
          "name": "amountBet",
          "type": "uint256"
        },
        {
          "internalType": "uint16",
          "name": "teamSelected",
          "type": "uint16"
        },
        {
          "internalType": "bytes32",
          "name": "commit",
          "type": "bytes32"
        },
        {
          "internalType": "bool",
          "name": "revealed",
          "type": "bool"
        }
      ],
      "stateMutability": "view",
      "type": "function",
      "constant": true
    },
    {
      "inputs": [
        {
          "internalType": "uint256",
          "name": "",
          "type": "uint256"
        }
      ],
      "name": "players",
      "outputs": [
        {
          "internalType": "address",
          "name": "",
          "type": "address"
        }
      ],
      "stateMutability": "view",
      "type": "function",
      "constant": true
    },
    {
      "inputs": [],
      "name": "totalBetsOne",
      "outputs": [
        {
          "internalType": "uint256",
          "name": "",
          "type": "uint256"
        }
      ],
      "stateMutability": "view",
      "type": "function",
      "constant": true
    },
    {
      "inputs": [],
      "name": "totalBetsTwo",
      "outputs": [
        {
          "internalType": "uint256",
          "name": "",
          "type": "uint256"
        }
      ],
      "stateMutability": "view",
      "type": "function",
      "constant": true
    },
    {
      "stateMutability": "payable",
      "type": "receive",
      "payable": true
    },
    {
      "inputs": [
        {
          "internalType": "bytes32",
          "name": "_commit",
          "type": "bytes32"
        }
      ],
      "name": "commitBet",
      "outputs": [],
      "stateMutability": "payable",
      "type": "function",
      "payable": true
    },
    {
      "inputs": [
        {
          "internalType": "uint8",
          "name": "_teamSelected",
          "type": "uint8"
        },
        {
          "internalType": "uint256",
          "name": "_nonce",
          "type": "uint256"
        }
      ],
      "name": "revealBet",
      "outputs": [],
      "stateMutability": "nonpayable",
      "type": "function"
    },
    {
      "inputs": [],
      "name": "kill",
      "outputs": [],
      "stateMutability": "nonpayable",
      "type": "function"
    },
    {
      "inputs": [
        {
          "internalType": "address",
          "name": "player",
          "type": "address"
        }
      ],
      "name": "checkPlayerExists",
      "outputs": [
        {
          "internalType": "bool",
          "name": "",
          "type": "bool"
        }
      ],
      "stateMutability": "view",
      "type": "function",
      "constant": true
    },
    {
      "inputs": [
        {
          "internalType": "uint16",
          "name": "teamWinner",
          "type": "uint16"
        }
      ],
      "name": "distributePrizes",
      "outputs": [],
      "stateMutability": "nonpayable",
      "type": "function"
    },
    {
      "inputs": [],
      "name": "AmountOne",
      "outputs": [
        {
          "internalType": "uint256",
          "name": "",
          "type": "uint256"
        }
      ],
      "stateMutability": "view",
      "type": "function",
      "constant": true
    },
    {
      "inputs": [],
      "name": "AmountTwo",
      "outputs": [
        {
          "internalType": "uint256",
          "name": "",
          "type": "uint256"
        }
      ],
      "stateMutability": "view",
      "type": "function",
      "constant": true
    }
  ],
  "bytecode": "0x608060405234801561001057600080fd5b50336000806101000a81548173ffffffffffffffffffffffffffffffffffffffff021916908373ffffffffffffffffffffffffffffffffffffffff160217905550655af3107a400060018190555068056bc75e2d631000006002819055506103e8600581905550612434806100866000396000f3fe6080604052600436106100ec5760003560e01c8063657335921161008a578063c38a8afd11610059578063c38a8afd146102e2578063c61a25d41461030d578063f71d96cb14610329578063fb66add014610366576100f3565b806365733592146102385780637904f688146102635780638afadeb51461028c5780638da5cb5b146102b7576100f3565b80634996d51d116100c65780634996d51d146101775780634b114691146101a25780634c2412a2146101e25780635bf6b19f1461020d576100f3565b8063227cade5146100f85780634081d9161461012357806341c0e1b514610160576100f3565b366100f357005b600080fd5b34801561010457600080fd5b5061010d61038f565b60405161011a91906117cc565b60405180910390f35b34801561012f57600080fd5b5061014a6004803603810190610145919061184a565b610395565b6040516101579190611892565b60405180910390f35b34801561016c57600080fd5b50610175610444565b005b34801561018357600080fd5b5061018c6106e2565b60405161019991906117cc565b60405180910390f35b3480156101ae57600080fd5b506101c960048036038101906101c4919061184a565b6106ec565b6040516101d994939291906118e3565b60405180910390f35b3480156101ee57600080fd5b506101f7610737565b60405161020491906117cc565b60405180910390f35b34801561021957600080fd5b5061022261073d565b60405161022f91906117cc565b60405180910390f35b34801561024457600080fd5b5061024d610743565b60405161025a91906117cc565b60405180910390f35b34801561026f57600080fd5b5061028a60048036038101906102859190611954565b61074d565b005b34801561029857600080fd5b506102a1610e94565b6040516102ae91906117cc565b60405180910390f35b3480156102c357600080fd5b506102cc610e9a565b6040516102d99190611990565b60405180910390f35b3480156102ee57600080fd5b506102f7610ebe565b60405161030491906117cc565b60405180910390f35b610327600480360381019061032291906119d7565b610ec4565b005b34801561033557600080fd5b50610350600480360381019061034b9190611a30565b61112e565b60405161035d9190611990565b60405180910390f35b34801561037257600080fd5b5061038d60048036038101906103889190611a96565b61116d565b005b60025481565b600080600090505b600680549050811015610439578273ffffffffffffffffffffffffffffffffffffffff16600682815481106103d5576103d4611ad6565b5b9060005260206000200160009054906101000a900473ffffffffffffffffffffffffffffffffffffffff1673ffffffffffffffffffffffffffffffffffffffff16141561042657600191505061043f565b808061043190611b34565b91505061039d565b50600090505b919050565b60008054906101000a900473ffffffffffffffffffffffffffffffffffffffff1673ffffffffffffffffffffffffffffffffffffffff163373ffffffffffffffffffffffffffffffffffffffff16146104d2576040517f08c379a00000000000000000000000000000000000000000000000000000000081526004016104c990611c00565b60405180910390fd5b60005b60068054905081101561064d576000600682815481106104f8576104f7611ad6565b5b9060005260206000200160009054906101000a900473ffffffffffffffffffffffffffffffffffffffff1690506000600760008373ffffffffffffffffffffffffffffffffffffffff1673ffffffffffffffffffffffffffffffffffffffff16815260200190815260200160002060000154905060008111156105bd578173ffffffffffffffffffffffffffffffffffffffff166108fc829081150290604051600060405180830381858888f193505050501580156105bb573d6000803e3d6000fd5b505b600760008373ffffffffffffffffffffffffffffffffffffffff1673ffffffffffffffffffffffffffffffffffffffff1681526020019081526020016000206000808201600090556001820160006101000a81549061ffff021916905560028201600090556003820160006101000a81549060ff021916905550505050808061064590611b34565b9150506104d5565b505b600060068054905011156106a957600680548061066f5761066e611c20565b5b6001900381819060005260206000200160006101000a81549073ffffffffffffffffffffffffffffffffffffffff0219169055905561064f565b60008054906101000a900473ffffffffffffffffffffffffffffffffffffffff1673ffffffffffffffffffffffffffffffffffffffff16ff5b6000600354905090565b60076020528060005260406000206000915090508060000154908060010160009054906101000a900461ffff16908060020154908060030160009054906101000a900460ff16905084565b60055481565b60045481565b6000600454905090565b60008054906101000a900473ffffffffffffffffffffffffffffffffffffffff1673ffffffffffffffffffffffffffffffffffffffff163373ffffffffffffffffffffffffffffffffffffffff16146107db576040517f08c379a00000000000000000000000000000000000000000000000000000000081526004016107d290611c9b565b60405180910390fd5b60018161ffff1614806107f2575060028161ffff16145b610831576040517f08c379a000000000000000000000000000000000000000000000000000000000815260040161082890611d2d565b60405180910390fd5b7f3f44d9c0605f7f8017bb09393f269fe9e926c9e1fdc6fb8dcfd55bf6febad734816040516108609190611d4d565b60405180910390a1600060035414801561087e575060018161ffff16145b8061089b5750600060045414801561089a575060028161ffff16145b5b15610a7c5760005b600680549050811015610a0b576000600682815481106108c6576108c5611ad6565b5b9060005260206000200160009054906101000a900473ffffffffffffffffffffffffffffffffffffffff1690508073ffffffffffffffffffffffffffffffffffffffff166108fc600760008473ffffffffffffffffffffffffffffffffffffffff1673ffffffffffffffffffffffffffffffffffffffff168152602001908152602001600020600001549081150290604051600060405180830381858888f1935050505015801561097b573d6000803e3d6000fd5b50600760008273ffffffffffffffffffffffffffffffffffffffff1673ffffffffffffffffffffffffffffffffffffffff1681526020019081526020016000206000808201600090556001820160006101000a81549061ffff021916905560028201600090556003820160006101000a81549060ff02191690555050508080610a0390611b34565b9150506108a3565b505b60006006805490501115610a67576006805480610a2d57610a2c611c20565b5b6001900381819060005260206000200160006101000a81549073ffffffffffffffffffffffffffffffffffffffff02191690559055610a0d565b60006003819055506000600481905550610e91565b610a8461178f565b6000806000805b600680549050811015610baa57600060068281548110610aae57610aad611ad6565b5b9060005260206000200160009054906101000a900473ffffffffffffffffffffffffffffffffffffffff1690508661ffff16600760008373ffffffffffffffffffffffffffffffffffffffff1673ffffffffffffffffffffffffffffffffffffffff16815260200190815260200160002060010160009054906101000a900461ffff1661ffff161415610b96578086866103e88110610b5057610b4f611ad6565b5b602002019073ffffffffffffffffffffffffffffffffffffffff16908173ffffffffffffffffffffffffffffffffffffffff16815250508480610b9290611b34565b9550505b508080610ba290611b34565b915050610a8b565b5060018561ffff161415610bc75760045491506003549050610be0565b60028561ffff161415610bdf57600354915060045490505b5b60005b83811015610d3557600073ffffffffffffffffffffffffffffffffffffffff1685826103e88110610c1757610c16611ad6565b5b602002015173ffffffffffffffffffffffffffffffffffffffff1614610d2257600085826103e88110610c4d57610c4c611ad6565b5b602002015190506000600760008373ffffffffffffffffffffffffffffffffffffffff1673ffffffffffffffffffffffffffffffffffffffff1681526020019081526020016000206000015490508173ffffffffffffffffffffffffffffffffffffffff166108fc6127108661271089610cc79190611d68565b610cd19190611df1565b612710610cde9190611e22565b84610ce99190611d68565b610cf39190611df1565b9081150290604051600060405180830381858888f19350505050158015610d1e573d6000803e3d6000fd5b5050505b8080610d2d90611b34565b915050610be3565b5060005b600680549050811015610e1857600060068281548110610d5c57610d5b611ad6565b5b9060005260206000200160009054906101000a900473ffffffffffffffffffffffffffffffffffffffff169050600760008273ffffffffffffffffffffffffffffffffffffffff1673ffffffffffffffffffffffffffffffffffffffff1681526020019081526020016000206000808201600090556001820160006101000a81549061ffff021916905560028201600090556003820160006101000a81549060ff02191690555050508080610e1090611b34565b915050610d39565b505b60006006805490501115610e74576006805480610e3a57610e39611c20565b5b6001900381819060005260206000200160006101000a81549073ffffffffffffffffffffffffffffffffffffffff02191690559055610e1a565b600091506000905060006003819055506000600481905550505050505b50565b60035481565b60008054906101000a900473ffffffffffffffffffffffffffffffffffffffff1681565b60015481565b610ecd33610395565b15610f0d576040517f08c379a0000000000000000000000000000000000000000000000000000000008152600401610f0490611ec4565b60405180910390fd5b60055460068054905010610f56576040517f08c379a0000000000000000000000000000000000000000000000000000000008152600401610f4d90611f56565b60405180910390fd5b600154341015610f67600154611564565b604051602001610f779190612062565b60405160208183030381529060405290610fc7576040517f08c379a0000000000000000000000000000000000000000000000000000000008152600401610fbe91906120ce565b60405180910390fd5b50600254341115610fd9600254611564565b604051602001610fe99190612162565b60405160208183030381529060405290611039576040517f08c379a000000000000000000000000000000000000000000000000000000000815260040161103091906120ce565b60405180910390fd5b5080600760003373ffffffffffffffffffffffffffffffffffffffff1673ffffffffffffffffffffffffffffffffffffffff1681526020019081526020016000206002018190555034600760003373ffffffffffffffffffffffffffffffffffffffff1673ffffffffffffffffffffffffffffffffffffffff168152602001908152602001600020600001819055506006339080600181540180825580915050600190039060005260206000200160009091909190916101000a81548173ffffffffffffffffffffffffffffffffffffffff021916908373ffffffffffffffffffffffffffffffffffffffff16021790555050565b6006818154811061113e57600080fd5b906000526020600020016000915054906101000a900473ffffffffffffffffffffffffffffffffffffffff1681565b61117633610395565b6111b5576040517f08c379a00000000000000000000000000000000000000000000000000000000081526004016111ac906121d0565b60405180910390fd5b600760003373ffffffffffffffffffffffffffffffffffffffff1673ffffffffffffffffffffffffffffffffffffffff16815260200190815260200160002060030160009054906101000a900460ff1615611245576040517f08c379a000000000000000000000000000000000000000000000000000000000815260040161123c90612262565b60405180910390fd5b6000828260405160200161125a9291906122d9565b60405160208183030381529060405280519060200120905080600760003373ffffffffffffffffffffffffffffffffffffffff1673ffffffffffffffffffffffffffffffffffffffff16815260200190815260200160002060020154146112f6576040517f08c379a00000000000000000000000000000000000000000000000000000000081526004016112ed90612377565b60405180910390fd5b60018360ff16148061130b575060028360ff16145b61134a576040517f08c379a000000000000000000000000000000000000000000000000000000000815260040161134190611d2d565b60405180910390fd5b8260ff16600760003373ffffffffffffffffffffffffffffffffffffffff1673ffffffffffffffffffffffffffffffffffffffff16815260200190815260200160002060010160006101000a81548161ffff021916908361ffff1602179055506001600760003373ffffffffffffffffffffffffffffffffffffffff1673ffffffffffffffffffffffffffffffffffffffff16815260200190815260200160002060030160006101000a81548160ff02191690831515021790555060018360ff16141561147157600760003373ffffffffffffffffffffffffffffffffffffffff1673ffffffffffffffffffffffffffffffffffffffff16815260200190815260200160002060000154600360008282546114659190611e22565b925050819055506114cd565b600760003373ffffffffffffffffffffffffffffffffffffffff1673ffffffffffffffffffffffffffffffffffffffff16815260200190815260200160002060000154600460008282546114c59190611e22565b925050819055505b3373ffffffffffffffffffffffffffffffffffffffff167f7df19a783369d9cefb06e18b396518f817b48766b74157758eda633a62f58fa7600760003373ffffffffffffffffffffffffffffffffffffffff1673ffffffffffffffffffffffffffffffffffffffff16815260200190815260200160002060000154856040516115579291906123a6565b60405180910390a2505050565b6060600060016115738461163c565b01905060008167ffffffffffffffff811115611592576115916123cf565b5b6040519080825280601f01601f1916602001820160405280156115c45781602001600182028036833780820191505090505b509050600082602001820190505b600115611631578080600190039150507f3031323334353637383961626364656600000000000000000000000000000000600a86061a8153600a858161161b5761161a611dc2565b5b049450600085141561162c57611631565b6115d2565b819350505050919050565b600080600090507a184f03e93ff9f4daa797ed6e38ed64bf6a1f010000000000000000831061169a577a184f03e93ff9f4daa797ed6e38ed64bf6a1f01000000000000000083816116905761168f611dc2565b5b0492506040810190505b6d04ee2d6d415b85acef810000000083106116d7576d04ee2d6d415b85acef810000000083816116cd576116cc611dc2565b5b0492506020810190505b662386f26fc10000831061170657662386f26fc1000083816116fc576116fb611dc2565b5b0492506010810190505b6305f5e100831061172f576305f5e100838161172557611724611dc2565b5b0492506008810190505b612710831061175457612710838161174a57611749611dc2565b5b0492506004810190505b60648310611777576064838161176d5761176c611dc2565b5b0492506002810190505b600a8310611786576001810190505b80915050919050565b60405180617d0001604052806103e890602082028036833780820191505090505090565b6000819050919050565b6117c6816117b3565b82525050565b60006020820190506117e160008301846117bd565b92915050565b600080fd5b600073ffffffffffffffffffffffffffffffffffffffff82169050919050565b6000611817826117ec565b9050919050565b6118278161180c565b811461183257600080fd5b50565b6000813590506118448161181e565b92915050565b6000602082840312156118605761185f6117e7565b5b600061186e84828501611835565b91505092915050565b60008115159050919050565b61188c81611877565b82525050565b60006020820190506118a76000830184611883565b92915050565b600061ffff82169050919050565b6118c4816118ad565b82525050565b6000819050919050565b6118dd816118ca565b82525050565b60006080820190506118f860008301876117bd565b61190560208301866118bb565b61191260408301856118d4565b61191f6060830184611883565b95945050505050565b611931816118ad565b811461193c57600080fd5b50565b60008135905061194e81611928565b92915050565b60006020828403121561196a576119696117e7565b5b60006119788482850161193f565b91505092915050565b61198a8161180c565b82525050565b60006020820190506119a56000830184611981565b92915050565b6119b4816118ca565b81146119bf57600080fd5b50565b6000813590506119d1816119ab565b92915050565b6000602082840312156119ed576119ec6117e7565b5b60006119fb848285016119c2565b91505092915050565b611a0d816117b3565b8114611a1857600080fd5b50565b600081359050611a2a81611a04565b92915050565b600060208284031215611a4657611a456117e7565b5b6000611a5484828501611a1b565b91505092915050565b600060ff82169050919050565b611a7381611a5d565b8114611a7e57600080fd5b50565b600081359050611a9081611a6a565b92915050565b60008060408385031215611aad57611aac6117e7565b5b6000611abb85828601611a81565b9250506020611acc85828601611a1b565b9150509250929050565b7f4e487b7100000000000000000000000000000000000000000000000000000000600052603260045260246000fd5b7f4e487b7100000000000000000000000000000000000000000000000000000000600052601160045260246000fd5b6000611b3f826117b3565b91507fffffffffffffffffffffffffffffffffffffffffffffffffffffffffffffffff821415611b7257611b71611b05565b5b600182019050919050565b600082825260208201905092915050565b7f4f6e6c79206f776e65722063616e206578656375746520746869732066756e6360008201527f74696f6e2e000000000000000000000000000000000000000000000000000000602082015250565b6000611bea602583611b7d565b9150611bf582611b8e565b604082019050919050565b60006020820190508181036000830152611c1981611bdd565b9050919050565b7f4e487b7100000000000000000000000000000000000000000000000000000000600052603160045260246000fd5b7f4f6e6c79206f776e65722063616e2064697374726962757465207072697a6573600082015250565b6000611c85602083611b7d565b9150611c9082611c4f565b602082019050919050565b60006020820190508181036000830152611cb481611c78565b9050919050565b7f506c6561736520656e7465722031206f72203220666f72207468652074776f2060008201527f7465616d73000000000000000000000000000000000000000000000000000000602082015250565b6000611d17602583611b7d565b9150611d2282611cbb565b604082019050919050565b60006020820190508181036000830152611d4681611d0a565b9050919050565b6000602082019050611d6260008301846118bb565b92915050565b6000611d73826117b3565b9150611d7e836117b3565b9250817fffffffffffffffffffffffffffffffffffffffffffffffffffffffffffffffff0483118215151615611db757611db6611b05565b5b828202905092915050565b7f4e487b7100000000000000000000000000000000000000000000000000000000600052601260045260246000fd5b6000611dfc826117b3565b9150611e07836117b3565b925082611e1757611e16611dc2565b5b828204905092915050565b6000611e2d826117b3565b9150611e38836117b3565b9250827fffffffffffffffffffffffffffffffffffffffffffffffffffffffffffffffff03821115611e6d57611e6c611b05565b5b828201905092915050565b7f506c6179657220616c7265616479206578697374732e00000000000000000000600082015250565b6000611eae601683611b7d565b9150611eb982611e78565b602082019050919050565b60006020820190508181036000830152611edd81611ea1565b9050919050565b7f4d6178696d756d206e756d626572206f6620706c61796572732072656163686560008201527f642e000000000000000000000000000000000000000000000000000000000000602082015250565b6000611f40602283611b7d565b9150611f4b82611ee4565b604082019050919050565b60006020820190508181036000830152611f6f81611f33565b9050919050565b600081905092915050565b7f4265742076616c7565206d75737420626520686967686572207468616e20746860008201527f65206d696e696d756d20626574206f6620000000000000000000000000000000602082015250565b6000611fdd603183611f76565b9150611fe882611f81565b603182019050919050565b600081519050919050565b60005b8381101561201c578082015181840152602081019050612001565b8381111561202b576000848401525b50505050565b600061203c82611ff3565b6120468185611f76565b9350612056818560208601611ffe565b80840191505092915050565b600061206d82611fd0565b91506120798284612031565b915081905092915050565b6000601f19601f8301169050919050565b60006120a082611ff3565b6120aa8185611b7d565b93506120ba818560208601611ffe565b6120c381612084565b840191505092915050565b600060208201905081810360008301526120e88184612095565b905092915050565b7f4265742076616c7565206d757374206265206c6f776572207468616e2074686560008201527f206d6178696d756d20626574206f662000000000000000000000000000000000602082015250565b600061214c603083611f76565b9150612157826120f0565b603082019050919050565b600061216d8261213f565b91506121798284612031565b915081905092915050565b7f506c6179657220646f65736e27742065786973742e0000000000000000000000600082015250565b60006121ba601583611b7d565b91506121c582612184565b602082019050919050565b600060208201905081810360008301526121e9816121ad565b9050919050565b7f506c617965722068617320616c72656164792072657665616c6564207468656960008201527f72206265742e0000000000000000000000000000000000000000000000000000602082015250565b600061224c602683611b7d565b9150612257826121f0565b604082019050919050565b6000602082019050818103600083015261227b8161223f565b9050919050565b60008160f81b9050919050565b600061229a82612282565b9050919050565b6122b26122ad82611a5d565b61228f565b82525050565b6000819050919050565b6122d36122ce826117b3565b6122b8565b82525050565b60006122e582856122a1565b6001820191506122f582846122c2565b6020820191508190509392505050565b7f50726f7669646564206265742064657461696c7320646f206e6f74206d61746360008201527f682074686520636f6d6d69742e00000000000000000000000000000000000000602082015250565b6000612361602d83611b7d565b915061236c82612305565b604082019050919050565b6000602082019050818103600083015261239081612354565b9050919050565b6123a081611a5d565b82525050565b60006040820190506123bb60008301856117bd565b6123c86020830184612397565b9392505050565b7f4e487b7100000000000000000000000000000000000000000000000000000000600052604160045260246000fdfea26469706673582212202b01687619290ee5064442e15eabd01f07220c0d1325a66a084b17276c489e7264736f6c634300080c0033",
  "immutableReferences": {},
  "source": "pragma solidity ^0.8.12;\n// SPDX-License-Identifier: GPL-3.0\n// Testing Purposes: Hash(Team, Nonce)\n// Hash(1, 1) = 0x9b68e489a07c86105b2c34adda59d3851d6f33abd41be6e9559cf783147db5dd\n// Hash(2, 1) = 0xc22f283e315b25ded781f41aadc4cc3421da0afd0704feaae04c34a9dfc55ac6\n\nimport \"@openzeppelin/contracts/utils/math/SafeMath.sol\";\nimport \"@openzeppelin/contracts/utils/Strings.sol\"; //For uint to string conversion\nimport \"@openzeppelin/contracts/utils/cryptography/ECDSA.sol\";\ncontract bettingApp {\n    using SafeMath for uint256;\n    using ECDSA for bytes32;\n    address public owner;\n    uint256 public minimumBet;\n    uint256 public maximumBet;\n    uint256 public totalBetsOne;\n    uint256 public totalBetsTwo;\n    uint256 public maxPlayers;\n    address[] public players;\n\n    struct Player {\n        uint256 amountBet;\n        uint16 teamSelected;\n        bytes32 commit;\n        bool revealed;\n    }\n\n    event BetPlaced(address indexed player, uint256 amount, uint8 teamSelected);\n    event PrizesDistributed(uint16 winningTeam);\n    // The address of the player and => the user info\n    mapping(address => Player) public playerInfo;\n    receive() external payable {}\n    \n    constructor() {\n        owner = msg.sender;\n        minimumBet = 100000000000000; //0.0001 ether\n        maximumBet = 100000000000000000000; //100 ether\n        maxPlayers = 1000;\n    }\n\n    function commitBet(bytes32 _commit) public payable {\n        require(!checkPlayerExists(msg.sender), \"Player already exists.\");\n        require(players.length < maxPlayers, \"Maximum number of players reached.\");\n        require(msg.value >= minimumBet, string.concat(\"Bet value must be higher than the minimum bet of \", Strings.toString(minimumBet)));\n        require(msg.value <= maximumBet, string.concat(\"Bet value must be lower than the maximum bet of \", Strings.toString(maximumBet)));\n\n        playerInfo[msg.sender].commit = _commit;\n        playerInfo[msg.sender].amountBet = msg.value;\n        players.push(msg.sender);\n    }\n\n    function revealBet(uint8 _teamSelected, uint256 _nonce) public {\n        require(checkPlayerExists(msg.sender), \"Player doesn't exist.\");\n        require(!playerInfo[msg.sender].revealed, \"Player has already revealed their bet.\");\n\n        bytes32 computedHash = keccak256(abi.encodePacked(_teamSelected, _nonce));\n\n        require(playerInfo[msg.sender].commit == computedHash, \"Provided bet details do not match the commit.\");\n\n        // The bets should be either team 1 or team 2\n        require(_teamSelected == 1 || _teamSelected == 2, \"Please enter 1 or 2 for the two teams\");\n\n        // We set the player information: selected team\n        playerInfo[msg.sender].teamSelected = _teamSelected;\n        playerInfo[msg.sender].revealed = true;\n\n        // At the end, we increment the stakes of the team selected with the player bet\n        if (_teamSelected == 1) {\n            totalBetsOne += playerInfo[msg.sender].amountBet;\n        } else {\n            totalBetsTwo += playerInfo[msg.sender].amountBet;\n        }\n\n        emit BetPlaced(msg.sender, playerInfo[msg.sender].amountBet, _teamSelected);\n    }\n\n    function kill() public {\n        require(msg.sender == owner, \"Only owner can execute this function.\");\n\n        // Refund each player's bet\n        for (uint256 i = 0; i < players.length; i++) {\n            address payable playerAddress = payable(players[i]);\n            uint256 playerbet = playerInfo[playerAddress].amountBet;\n\n            if (playerbet > 0) {\n                playerAddress.transfer(playerbet);\n            }\n            delete playerInfo[playerAddress];\n        }\n\n        while (players.length > 0) {\n            players.pop();\n        }\n\n        // Destroy the contract and send any remaining balance to the owner\n        selfdestruct(payable(owner));\n    }\n\n    function checkPlayerExists(address player) public view returns(bool){\n        for(uint256 i = 0; i < players.length; i++){\n            if(players[i] == player) return true;\n        }\n        return false;\n    }\n\n    // Generates a number between 1 and 10 that will be the winner\n    function distributePrizes(uint16 teamWinner) public {\n        require(msg.sender == owner, \"Only owner can distribute prizes\");\n        require(teamWinner == 1 || teamWinner == 2, \"Please enter 1 or 2 for the two teams\");\n        emit PrizesDistributed(teamWinner);\n        //If no one bet on the winning team, return everyone's bets\n        if((totalBetsOne==0 && teamWinner==1) || (totalBetsTwo==0 && teamWinner==2)){ \n            for (uint256 i = 0; i < players.length; i++) {\n                address payable playerAddress = payable(players[i]);\n                playerAddress.transfer(playerInfo[playerAddress].amountBet);\n                delete playerInfo[playerAddress];\n            }\n            while (players.length > 0) {\n                players.pop();\n            }\n            totalBetsOne = 0;\n            totalBetsTwo = 0;\n            return;\n        }\n        //Else, give the winners their prizes\n        address[1000] memory winners;\n        //We have to create a temporary in-memory array with fixed size\n        //Let's choose 1000\n        uint256 count = 0; // This is the count for the array of winners\n        uint256 LoserBet = 0; //This will take the value of all losers bet\n        uint256 WinnerBet = 0; //This will take the value of all winners bet\n\n        //We loop through the player array to check who selected the winner team\n        for(uint256 i = 0; i < players.length; i++){\n            address playerAddress = players[i];\n\n            //If the player selected the winner team\n            //We add his address to the winners array\n            if(playerInfo[playerAddress].teamSelected == teamWinner){\n                winners[count] = playerAddress;\n                count++;\n            }\n        }\n\n        //We define which bet sum is the Loser one and which one is the winner\n        if (teamWinner == 1){\n            LoserBet = totalBetsTwo;\n            WinnerBet = totalBetsOne;\n        }\n        else if (teamWinner == 2){\n            LoserBet = totalBetsOne;\n            WinnerBet = totalBetsTwo;\n        }\n\n        //We loop through the array of winners, to give ethers to the winners\n        for(uint256 j = 0; j < count; j++){\n            // Check that the address in this fixed array is not empty\n            if(winners[j] != address(0)){\n                address payable add = payable(winners[j]);\n                uint256 playerbet = playerInfo[add].amountBet;\n                //Transfer the money to the user, uses safemath to avoid integer overflow or underflow\n                add.transfer((playerbet * (10000 + (LoserBet * 10000 / WinnerBet))) / 10000);\n                //add.transfer(playerbet.mul((LoserBet.mul(10000).div(WinnerBet).add(10000)).div(10000))); doesn't produce correct result\n            }\n        }\n        for (uint256 i = 0; i < players.length; i++) {\n            address playerAddress = players[i];\n            delete playerInfo[playerAddress]; // Delete all the players\n        }\n        while (players.length > 0) {\n            players.pop();\n        } // Delete all the players array\n        LoserBet = 0; //reinitialize the bets\n        WinnerBet = 0;\n        totalBetsOne = 0;\n        totalBetsTwo = 0;\n    }\n    function AmountOne() public view returns(uint256){\n        return totalBetsOne;\n    }\n\n    function AmountTwo() public view returns(uint256){\n        return totalBetsTwo;\n    }\n}\n",
  "sourcePath": "/Users/adg516/Documents/csce 489 blockchain/project/sports-betting-489/test/contracts/bettingApp.sol",
  "compiler": {
    "name": "solc",
    "version": "0.8.12+commit.f00d7308.Emscripten.clang"
  },
  "schemaVersion": "3.4.13",
  "updatedAt": "2023-04-12T21:46:26.981Z",
  "networkType": "ethereum",
  "devdoc": {
    "kind": "dev",
    "methods": {},
    "version": 1
  },
  "userdoc": {
    "kind": "user",
    "methods": {},
    "version": 1
  }
}