{
  "contractName": "bettingApp",
  "abi": [
    {
      "inputs": [],
      "stateMutability": "nonpayable",
      "type": "constructor"
    },
    {
      "anonymous": false,
      "inputs": [
        {
          "indexed": true,
          "internalType": "address",
          "name": "player",
          "type": "address"
        },
        {
          "indexed": false,
          "internalType": "uint256",
          "name": "amount",
          "type": "uint256"
        },
        {
          "indexed": false,
          "internalType": "uint8",
          "name": "teamSelected",
          "type": "uint8"
        }
      ],
      "name": "BetPlaced",
      "type": "event"
    },
    {
      "anonymous": false,
      "inputs": [
        {
          "indexed": false,
          "internalType": "uint16",
          "name": "winningTeam",
          "type": "uint16"
        }
      ],
      "name": "PrizesDistributed",
      "type": "event"
    },
    {
      "inputs": [],
      "name": "maxPlayers",
      "outputs": [
        {
          "internalType": "uint256",
          "name": "",
          "type": "uint256"
        }
      ],
      "stateMutability": "view",
      "type": "function",
      "constant": true
    },
    {
      "inputs": [],
      "name": "maximumBet",
      "outputs": [
        {
          "internalType": "uint256",
          "name": "",
          "type": "uint256"
        }
      ],
      "stateMutability": "view",
      "type": "function",
      "constant": true
    },
    {
      "inputs": [],
      "name": "minimumBet",
      "outputs": [
        {
          "internalType": "uint256",
          "name": "",
          "type": "uint256"
        }
      ],
      "stateMutability": "view",
      "type": "function",
      "constant": true
    },
    {
      "inputs": [],
      "name": "owner",
      "outputs": [
        {
          "internalType": "address",
          "name": "",
          "type": "address"
        }
      ],
      "stateMutability": "view",
      "type": "function",
      "constant": true
    },
    {
      "inputs": [
        {
          "internalType": "address",
          "name": "",
          "type": "address"
        }
      ],
      "name": "playerInfo",
      "outputs": [
        {
          "internalType": "uint256",
          "name": "amountBet",
          "type": "uint256"
        },
        {
          "internalType": "uint16",
          "name": "teamSelected",
          "type": "uint16"
        }
      ],
      "stateMutability": "view",
      "type": "function",
      "constant": true
    },
    {
      "inputs": [
        {
          "internalType": "uint256",
          "name": "",
          "type": "uint256"
        }
      ],
      "name": "players",
      "outputs": [
        {
          "internalType": "address",
          "name": "",
          "type": "address"
        }
      ],
      "stateMutability": "view",
      "type": "function",
      "constant": true
    },
    {
      "inputs": [],
      "name": "totalBetsOne",
      "outputs": [
        {
          "internalType": "uint256",
          "name": "",
          "type": "uint256"
        }
      ],
      "stateMutability": "view",
      "type": "function",
      "constant": true
    },
    {
      "inputs": [],
      "name": "totalBetsTwo",
      "outputs": [
        {
          "internalType": "uint256",
          "name": "",
          "type": "uint256"
        }
      ],
      "stateMutability": "view",
      "type": "function",
      "constant": true
    },
    {
      "stateMutability": "payable",
      "type": "receive",
      "payable": true
    },
    {
      "inputs": [],
      "name": "kill",
      "outputs": [],
      "stateMutability": "nonpayable",
      "type": "function"
    },
    {
      "inputs": [
        {
          "internalType": "address",
          "name": "player",
          "type": "address"
        }
      ],
      "name": "checkPlayerExists",
      "outputs": [
        {
          "internalType": "bool",
          "name": "",
          "type": "bool"
        }
      ],
      "stateMutability": "view",
      "type": "function",
      "constant": true
    },
    {
      "inputs": [
        {
          "internalType": "uint8",
          "name": "_teamSelected",
          "type": "uint8"
        }
      ],
      "name": "bet",
      "outputs": [],
      "stateMutability": "payable",
      "type": "function",
      "payable": true
    },
    {
      "inputs": [
        {
          "internalType": "uint16",
          "name": "teamWinner",
          "type": "uint16"
        }
      ],
      "name": "distributePrizes",
      "outputs": [],
      "stateMutability": "nonpayable",
      "type": "function"
    },
    {
      "inputs": [],
      "name": "AmountOne",
      "outputs": [
        {
          "internalType": "uint256",
          "name": "",
          "type": "uint256"
        }
      ],
      "stateMutability": "view",
      "type": "function",
      "constant": true
    },
    {
      "inputs": [],
      "name": "AmountTwo",
      "outputs": [
        {
          "internalType": "uint256",
          "name": "",
          "type": "uint256"
        }
      ],
      "stateMutability": "view",
      "type": "function",
      "constant": true
    }
  ],
  "bytecode": "0x608060405234801561001057600080fd5b50336000806101000a81548173ffffffffffffffffffffffffffffffffffffffff021916908373ffffffffffffffffffffffffffffffffffffffff160217905550655af3107a400060018190555068056bc75e2d631000006002819055506103e8600581905550611e4c806100866000396000f3fe6080604052600436106100e15760003560e01c8063657335921161007f5780638da5cb5b116100595780638da5cb5b146102aa578063c38a8afd146102d5578063d0821b0e14610300578063f71d96cb1461031c576100e8565b8063657335921461022b5780637904f688146102565780638afadeb51461027f576100e8565b80634996d51d116100bb5780634996d51d1461016c5780634b114691146101975780634c2412a2146101d55780635bf6b19f14610200576100e8565b8063227cade5146100ed5780634081d9161461011857806341c0e1b514610155576100e8565b366100e857005b600080fd5b3480156100f957600080fd5b50610102610359565b60405161010f9190611498565b60405180910390f35b34801561012457600080fd5b5061013f600480360381019061013a9190611516565b61035f565b60405161014c919061155e565b60405180910390f35b34801561016157600080fd5b5061016a61040e565b005b34801561017857600080fd5b50610181610690565b60405161018e9190611498565b60405180910390f35b3480156101a357600080fd5b506101be60048036038101906101b99190611516565b61069a565b6040516101cc929190611596565b60405180910390f35b3480156101e157600080fd5b506101ea6106cc565b6040516101f79190611498565b60405180910390f35b34801561020c57600080fd5b506102156106d2565b6040516102229190611498565b60405180910390f35b34801561023757600080fd5b506102406106d8565b60405161024d9190611498565b60405180910390f35b34801561026257600080fd5b5061027d600480360381019061027891906115eb565b6106e2565b005b34801561028b57600080fd5b50610294610e14565b6040516102a19190611498565b60405180910390f35b3480156102b657600080fd5b506102bf610e1a565b6040516102cc9190611627565b60405180910390f35b3480156102e157600080fd5b506102ea610e3e565b6040516102f79190611498565b60405180910390f35b61031a6004803603810190610315919061167b565b610e44565b005b34801561032857600080fd5b50610343600480360381019061033e91906116d4565b6111af565b6040516103509190611627565b60405180910390f35b60025481565b600080600090505b600680549050811015610403578273ffffffffffffffffffffffffffffffffffffffff166006828154811061039f5761039e611701565b5b9060005260206000200160009054906101000a900473ffffffffffffffffffffffffffffffffffffffff1673ffffffffffffffffffffffffffffffffffffffff1614156103f0576001915050610409565b80806103fb9061175f565b915050610367565b50600090505b919050565b60008054906101000a900473ffffffffffffffffffffffffffffffffffffffff1673ffffffffffffffffffffffffffffffffffffffff163373ffffffffffffffffffffffffffffffffffffffff161461049c576040517f08c379a00000000000000000000000000000000000000000000000000000000081526004016104939061182b565b60405180910390fd5b60005b6006805490508110156105fb576000600682815481106104c2576104c1611701565b5b9060005260206000200160009054906101000a900473ffffffffffffffffffffffffffffffffffffffff1690506000600760008373ffffffffffffffffffffffffffffffffffffffff1673ffffffffffffffffffffffffffffffffffffffff1681526020019081526020016000206000015490506000811115610587578173ffffffffffffffffffffffffffffffffffffffff166108fc829081150290604051600060405180830381858888f19350505050158015610585573d6000803e3d6000fd5b505b600760008373ffffffffffffffffffffffffffffffffffffffff1673ffffffffffffffffffffffffffffffffffffffff1681526020019081526020016000206000808201600090556001820160006101000a81549061ffff02191690555050505080806105f39061175f565b91505061049f565b505b6000600680549050111561065757600680548061061d5761061c61184b565b5b6001900381819060005260206000200160006101000a81549073ffffffffffffffffffffffffffffffffffffffff021916905590556105fd565b60008054906101000a900473ffffffffffffffffffffffffffffffffffffffff1673ffffffffffffffffffffffffffffffffffffffff16ff5b6000600354905090565b60076020528060005260406000206000915090508060000154908060010160009054906101000a900461ffff16905082565b60055481565b60045481565b6000600454905090565b60008054906101000a900473ffffffffffffffffffffffffffffffffffffffff1673ffffffffffffffffffffffffffffffffffffffff163373ffffffffffffffffffffffffffffffffffffffff1614610770576040517f08c379a0000000000000000000000000000000000000000000000000000000008152600401610767906118c6565b60405180910390fd5b60018161ffff161480610787575060028161ffff16145b6107c6576040517f08c379a00000000000000000000000000000000000000000000000000000000081526004016107bd90611958565b60405180910390fd5b7f3f44d9c0605f7f8017bb09393f269fe9e926c9e1fdc6fb8dcfd55bf6febad734816040516107f59190611978565b60405180910390a16000600354148015610813575060018161ffff16145b806108305750600060045414801561082f575060028161ffff16145b5b156109f55760005b6006805490508110156109845760006006828154811061085b5761085a611701565b5b9060005260206000200160009054906101000a900473ffffffffffffffffffffffffffffffffffffffff1690508073ffffffffffffffffffffffffffffffffffffffff166108fc600760008473ffffffffffffffffffffffffffffffffffffffff1673ffffffffffffffffffffffffffffffffffffffff168152602001908152602001600020600001549081150290604051600060405180830381858888f19350505050158015610910573d6000803e3d6000fd5b50600760008273ffffffffffffffffffffffffffffffffffffffff1673ffffffffffffffffffffffffffffffffffffffff1681526020019081526020016000206000808201600090556001820160006101000a81549061ffff0219169055505050808061097c9061175f565b915050610838565b505b600060068054905011156109e05760068054806109a6576109a561184b565b5b6001900381819060005260206000200160006101000a81549073ffffffffffffffffffffffffffffffffffffffff02191690559055610986565b60006003819055506000600481905550610e11565b6109fd61145b565b6000806000805b600680549050811015610b2357600060068281548110610a2757610a26611701565b5b9060005260206000200160009054906101000a900473ffffffffffffffffffffffffffffffffffffffff1690508661ffff16600760008373ffffffffffffffffffffffffffffffffffffffff1673ffffffffffffffffffffffffffffffffffffffff16815260200190815260200160002060010160009054906101000a900461ffff1661ffff161415610b0f578086866103e88110610ac957610ac8611701565b5b602002019073ffffffffffffffffffffffffffffffffffffffff16908173ffffffffffffffffffffffffffffffffffffffff16815250508480610b0b9061175f565b9550505b508080610b1b9061175f565b915050610a04565b5060018561ffff161415610b405760045491506003549050610b59565b60028561ffff161415610b5857600354915060045490505b5b60005b83811015610cd157600073ffffffffffffffffffffffffffffffffffffffff1685826103e88110610b9057610b8f611701565b5b602002015173ffffffffffffffffffffffffffffffffffffffff1614610cbe57600085826103e88110610bc657610bc5611701565b5b602002015190506000600760008373ffffffffffffffffffffffffffffffffffffffff1673ffffffffffffffffffffffffffffffffffffffff1681526020019081526020016000206000015490508173ffffffffffffffffffffffffffffffffffffffff166108fc610c8f610c80612710610c72612710610c648b610c566127108f6111ee90919063ffffffff16565b61120490919063ffffffff16565b61121a90919063ffffffff16565b61120490919063ffffffff16565b846111ee90919063ffffffff16565b9081150290604051600060405180830381858888f19350505050158015610cba573d6000803e3d6000fd5b5050505b8080610cc99061175f565b915050610b5c565b5060005b600680549050811015610d9857600060068281548110610cf857610cf7611701565b5b9060005260206000200160009054906101000a900473ffffffffffffffffffffffffffffffffffffffff169050600760008273ffffffffffffffffffffffffffffffffffffffff1673ffffffffffffffffffffffffffffffffffffffff1681526020019081526020016000206000808201600090556001820160006101000a81549061ffff02191690555050508080610d909061175f565b915050610cd5565b505b60006006805490501115610df4576006805480610dba57610db961184b565b5b6001900381819060005260206000200160006101000a81549073ffffffffffffffffffffffffffffffffffffffff02191690559055610d9a565b600091506000905060006003819055506000600481905550505050505b50565b60035481565b60008054906101000a900473ffffffffffffffffffffffffffffffffffffffff1681565b60015481565b60055460068054905010610e8d576040517f08c379a0000000000000000000000000000000000000000000000000000000008152600401610e8490611a05565b60405180910390fd5b610e963361035f565b15610ed6576040517f08c379a0000000000000000000000000000000000000000000000000000000008152600401610ecd90611a71565b60405180910390fd5b60018160ff161480610eeb575060028160ff16145b610f2a576040517f08c379a0000000000000000000000000000000000000000000000000000000008152600401610f2190611958565b60405180910390fd5b600154341015610f3b600154611230565b604051602001610f4b9190611b7d565b60405160208183030381529060405290610f9b576040517f08c379a0000000000000000000000000000000000000000000000000000000008152600401610f929190611be9565b60405180910390fd5b50600254341115610fad600254611230565b604051602001610fbd9190611c7d565b6040516020818303038152906040529061100d576040517f08c379a00000000000000000000000000000000000000000000000000000000081526004016110049190611be9565b60405180910390fd5b5034600760003373ffffffffffffffffffffffffffffffffffffffff1673ffffffffffffffffffffffffffffffffffffffff168152602001908152602001600020600001819055508060ff16600760003373ffffffffffffffffffffffffffffffffffffffff1673ffffffffffffffffffffffffffffffffffffffff16815260200190815260200160002060010160006101000a81548161ffff021916908361ffff1602179055506006339080600181540180825580915050600190039060005260206000200160009091909190916101000a81548173ffffffffffffffffffffffffffffffffffffffff021916908373ffffffffffffffffffffffffffffffffffffffff16021790555060018160ff1614156111425734600360008282546111369190611c9f565b9250508190555061115c565b34600460008282546111549190611c9f565b925050819055505b3373ffffffffffffffffffffffffffffffffffffffff167f7df19a783369d9cefb06e18b396518f817b48766b74157758eda633a62f58fa734836040516111a4929190611d04565b60405180910390a250565b600681815481106111bf57600080fd5b906000526020600020016000915054906101000a900473ffffffffffffffffffffffffffffffffffffffff1681565b600081836111fc9190611d2d565b905092915050565b600081836112129190611db6565b905092915050565b600081836112289190611c9f565b905092915050565b60606000600161123f84611308565b01905060008167ffffffffffffffff81111561125e5761125d611de7565b5b6040519080825280601f01601f1916602001820160405280156112905781602001600182028036833780820191505090505b509050600082602001820190505b6001156112fd578080600190039150507f3031323334353637383961626364656600000000000000000000000000000000600a86061a8153600a85816112e7576112e6611d87565b5b04945060008514156112f8576112fd565b61129e565b819350505050919050565b600080600090507a184f03e93ff9f4daa797ed6e38ed64bf6a1f0100000000000000008310611366577a184f03e93ff9f4daa797ed6e38ed64bf6a1f010000000000000000838161135c5761135b611d87565b5b0492506040810190505b6d04ee2d6d415b85acef810000000083106113a3576d04ee2d6d415b85acef8100000000838161139957611398611d87565b5b0492506020810190505b662386f26fc1000083106113d257662386f26fc1000083816113c8576113c7611d87565b5b0492506010810190505b6305f5e10083106113fb576305f5e10083816113f1576113f0611d87565b5b0492506008810190505b612710831061142057612710838161141657611415611d87565b5b0492506004810190505b60648310611443576064838161143957611438611d87565b5b0492506002810190505b600a8310611452576001810190505b80915050919050565b60405180617d0001604052806103e890602082028036833780820191505090505090565b6000819050919050565b6114928161147f565b82525050565b60006020820190506114ad6000830184611489565b92915050565b600080fd5b600073ffffffffffffffffffffffffffffffffffffffff82169050919050565b60006114e3826114b8565b9050919050565b6114f3816114d8565b81146114fe57600080fd5b50565b600081359050611510816114ea565b92915050565b60006020828403121561152c5761152b6114b3565b5b600061153a84828501611501565b91505092915050565b60008115159050919050565b61155881611543565b82525050565b6000602082019050611573600083018461154f565b92915050565b600061ffff82169050919050565b61159081611579565b82525050565b60006040820190506115ab6000830185611489565b6115b86020830184611587565b9392505050565b6115c881611579565b81146115d357600080fd5b50565b6000813590506115e5816115bf565b92915050565b600060208284031215611601576116006114b3565b5b600061160f848285016115d6565b91505092915050565b611621816114d8565b82525050565b600060208201905061163c6000830184611618565b92915050565b600060ff82169050919050565b61165881611642565b811461166357600080fd5b50565b6000813590506116758161164f565b92915050565b600060208284031215611691576116906114b3565b5b600061169f84828501611666565b91505092915050565b6116b18161147f565b81146116bc57600080fd5b50565b6000813590506116ce816116a8565b92915050565b6000602082840312156116ea576116e96114b3565b5b60006116f8848285016116bf565b91505092915050565b7f4e487b7100000000000000000000000000000000000000000000000000000000600052603260045260246000fd5b7f4e487b7100000000000000000000000000000000000000000000000000000000600052601160045260246000fd5b600061176a8261147f565b91507fffffffffffffffffffffffffffffffffffffffffffffffffffffffffffffffff82141561179d5761179c611730565b5b600182019050919050565b600082825260208201905092915050565b7f4f6e6c79206f776e65722063616e206578656375746520746869732066756e6360008201527f74696f6e2e000000000000000000000000000000000000000000000000000000602082015250565b60006118156025836117a8565b9150611820826117b9565b604082019050919050565b6000602082019050818103600083015261184481611808565b9050919050565b7f4e487b7100000000000000000000000000000000000000000000000000000000600052603160045260246000fd5b7f4f6e6c79206f776e65722063616e2064697374726962757465207072697a6573600082015250565b60006118b06020836117a8565b91506118bb8261187a565b602082019050919050565b600060208201905081810360008301526118df816118a3565b9050919050565b7f506c6561736520656e7465722031206f72203220666f72207468652074776f2060008201527f7465616d73000000000000000000000000000000000000000000000000000000602082015250565b60006119426025836117a8565b915061194d826118e6565b604082019050919050565b6000602082019050818103600083015261197181611935565b9050919050565b600060208201905061198d6000830184611587565b92915050565b7f4d6178696d756d206e756d626572206f6620706c61796572732072656163686560008201527f642e000000000000000000000000000000000000000000000000000000000000602082015250565b60006119ef6022836117a8565b91506119fa82611993565b604082019050919050565b60006020820190508181036000830152611a1e816119e2565b9050919050565b7f506c6179657220616c7265616479206578697374732e00000000000000000000600082015250565b6000611a5b6016836117a8565b9150611a6682611a25565b602082019050919050565b60006020820190508181036000830152611a8a81611a4e565b9050919050565b600081905092915050565b7f4265742076616c7565206d75737420626520686967686572207468616e20746860008201527f65206d696e696d756d20626574206f6620000000000000000000000000000000602082015250565b6000611af8603183611a91565b9150611b0382611a9c565b603182019050919050565b600081519050919050565b60005b83811015611b37578082015181840152602081019050611b1c565b83811115611b46576000848401525b50505050565b6000611b5782611b0e565b611b618185611a91565b9350611b71818560208601611b19565b80840191505092915050565b6000611b8882611aeb565b9150611b948284611b4c565b915081905092915050565b6000601f19601f8301169050919050565b6000611bbb82611b0e565b611bc581856117a8565b9350611bd5818560208601611b19565b611bde81611b9f565b840191505092915050565b60006020820190508181036000830152611c038184611bb0565b905092915050565b7f4265742076616c7565206d757374206265206c6f776572207468616e2074686560008201527f206d6178696d756d20626574206f662000000000000000000000000000000000602082015250565b6000611c67603083611a91565b9150611c7282611c0b565b603082019050919050565b6000611c8882611c5a565b9150611c948284611b4c565b915081905092915050565b6000611caa8261147f565b9150611cb58361147f565b9250827fffffffffffffffffffffffffffffffffffffffffffffffffffffffffffffffff03821115611cea57611ce9611730565b5b828201905092915050565b611cfe81611642565b82525050565b6000604082019050611d196000830185611489565b611d266020830184611cf5565b9392505050565b6000611d388261147f565b9150611d438361147f565b9250817fffffffffffffffffffffffffffffffffffffffffffffffffffffffffffffffff0483118215151615611d7c57611d7b611730565b5b828202905092915050565b7f4e487b7100000000000000000000000000000000000000000000000000000000600052601260045260246000fd5b6000611dc18261147f565b9150611dcc8361147f565b925082611ddc57611ddb611d87565b5b828204905092915050565b7f4e487b7100000000000000000000000000000000000000000000000000000000600052604160045260246000fdfea2646970667358221220861cb795a2fd26cbd1f5caff7a809ef957673eb6779da4b7decdabc96ec11e4f64736f6c634300080c0033",
  "immutableReferences": {},
  "source": "pragma solidity ^0.8.12;\n// SPDX-License-Identifier: GPL-3.0\n\nimport \"@openzeppelin/contracts/utils/math/SafeMath.sol\";\nimport \"@openzeppelin/contracts/utils/Strings.sol\"; //For uint to string conversion\n\ncontract bettingApp {\n    using SafeMath for uint256;\n    address public owner;\n    uint256 public minimumBet;\n    uint256 public maximumBet;\n    uint256 public totalBetsOne;\n    uint256 public totalBetsTwo;\n    uint256 public maxPlayers;\n    address[] public players;\n\n    struct Player {\n        uint256 amountBet;\n        uint16 teamSelected;\n    }\n\n    event BetPlaced(address indexed player, uint256 amount, uint8 teamSelected);\n    event PrizesDistributed(uint16 winningTeam);\n    // The address of the player and => the user info\n    mapping(address => Player) public playerInfo;\n    receive() external payable {}\n    \n    constructor() {\n        owner = msg.sender;\n        minimumBet = 100000000000000; //0.0001 ether\n        maximumBet = 100000000000000000000; //100 ether\n        maxPlayers = 1000;\n    }\n\n    function kill() public {\n        require(msg.sender == owner, \"Only owner can execute this function.\");\n\n        // Refund each player's bet\n        for (uint256 i = 0; i < players.length; i++) {\n            address payable playerAddress = payable(players[i]);\n            uint256 playerbet = playerInfo[playerAddress].amountBet;\n\n            if (playerbet > 0) {\n                playerAddress.transfer(playerbet);\n            }\n            delete playerInfo[playerAddress];\n        }\n\n        while (players.length > 0) {\n            players.pop();\n        }\n\n        // Destroy the contract and send any remaining balance to the owner\n        selfdestruct(payable(owner));\n    }\n\n    function checkPlayerExists(address player) public view returns(bool){\n        for(uint256 i = 0; i < players.length; i++){\n            if(players[i] == player) return true;\n        }\n        return false;\n    }\n\n    function bet(uint8 _teamSelected) public payable {\n        //Limit the number of players betting to prevent potential gas issues when distributing prizes\n        require(players.length < maxPlayers, \"Maximum number of players reached.\");\n        //The first require is used to check if the player already exists\n        require(!checkPlayerExists(msg.sender), \"Player already exists.\");\n        //The bets should be either team 1 or team 2\n        require(_teamSelected == 1 || _teamSelected == 2, \"Please enter 1 or 2 for the two teams\");\n        //The second one is used to see if the value sent by the player is higher than the minimum value\n        require(msg.value >= minimumBet, string.concat(\"Bet value must be higher than the minimum bet of \", Strings.toString(minimumBet)));\n        require(msg.value <= maximumBet, string.concat(\"Bet value must be lower than the maximum bet of \", Strings.toString(maximumBet)));\n        //We set the player information: amount of the bet and selected team\n        playerInfo[msg.sender].amountBet = msg.value;\n        playerInfo[msg.sender].teamSelected = _teamSelected;\n\n        //then we add the address of the player to the players array\n        players.push(msg.sender);\n        //at the end, we increment the stakes of the team selected with the player bet\n        if (_teamSelected == 1){\n            totalBetsOne += msg.value;\n        }\n        else{\n            totalBetsTwo += msg.value;\n        }\n        emit BetPlaced(msg.sender, msg.value, _teamSelected);\n    }\n\n    // Generates a number between 1 and 10 that will be the winner\n    function distributePrizes(uint16 teamWinner) public {\n        require(msg.sender == owner, \"Only owner can distribute prizes\");\n        require(teamWinner == 1 || teamWinner == 2, \"Please enter 1 or 2 for the two teams\");\n        emit PrizesDistributed(teamWinner);\n        //If no one bet on the winning team, return everyone's bets\n        if((totalBetsOne==0 && teamWinner==1) || (totalBetsTwo==0 && teamWinner==2)){ \n            for (uint256 i = 0; i < players.length; i++) {\n                address payable playerAddress = payable(players[i]);\n                playerAddress.transfer(playerInfo[playerAddress].amountBet);\n                delete playerInfo[playerAddress];\n            }\n            while (players.length > 0) {\n                players.pop();\n            }\n            totalBetsOne = 0;\n            totalBetsTwo = 0;\n            return;\n        }\n        //Else, give the winners their prizes\n        address[1000] memory winners;\n        //We have to create a temporary in-memory array with fixed size\n        //Let's choose 1000\n        uint256 count = 0; // This is the count for the array of winners\n        uint256 LoserBet = 0; //This will take the value of all losers bet\n        uint256 WinnerBet = 0; //This will take the value of all winners bet\n\n        //We loop through the player array to check who selected the winner team\n        for(uint256 i = 0; i < players.length; i++){\n            address playerAddress = players[i];\n\n            //If the player selected the winner team\n            //We add his address to the winners array\n            if(playerInfo[playerAddress].teamSelected == teamWinner){\n                winners[count] = playerAddress;\n                count++;\n            }\n        }\n\n        //We define which bet sum is the Loser one and which one is the winner\n        if (teamWinner == 1){\n            LoserBet = totalBetsTwo;\n            WinnerBet = totalBetsOne;\n        }\n        else if (teamWinner == 2){\n            LoserBet = totalBetsOne;\n            WinnerBet = totalBetsTwo;\n        }\n\n        //We loop through the array of winners, to give ethers to the winners\n        for(uint256 j = 0; j < count; j++){\n            // Check that the address in this fixed array is not empty\n            if(winners[j] != address(0)){\n                address payable add = payable(winners[j]);\n                uint256 playerbet = playerInfo[add].amountBet;\n                //Transfer the money to the user, uses safemath to avoid integer overflow or underflow\n                add.transfer(playerbet.mul((LoserBet.mul(10000).div(WinnerBet).add(10000)).div(10000)));\n            }\n        }\n        for (uint256 i = 0; i < players.length; i++) {\n            address playerAddress = players[i];\n            delete playerInfo[playerAddress]; // Delete all the players\n        }\n        while (players.length > 0) {\n            players.pop();\n        } // Delete all the players array\n        LoserBet = 0; //reinitialize the bets\n        WinnerBet = 0;\n        totalBetsOne = 0;\n        totalBetsTwo = 0;\n    }\n    function AmountOne() public view returns(uint256){\n        return totalBetsOne;\n    }\n\n    function AmountTwo() public view returns(uint256){\n        return totalBetsTwo;\n    }\n}\n\n\n\n\n",
  "sourcePath": "/Users/adg516/Documents/csce 489 blockchain/project/sports-betting-489/test/contracts/bettingApp.sol",
  "compiler": {
    "name": "solc",
    "version": "0.8.12+commit.f00d7308.Emscripten.clang"
  },
  "schemaVersion": "3.4.13",
  "updatedAt": "2023-04-07T19:57:47.836Z",
  "networkType": "ethereum",
  "devdoc": {
    "kind": "dev",
    "methods": {},
    "version": 1
  },
  "userdoc": {
    "kind": "user",
    "methods": {},
    "version": 1
  }
}