{
  "contractName": "bettingApp",
  "abi": [
    {
      "inputs": [],
      "stateMutability": "nonpayable",
      "type": "constructor"
    },
    {
      "anonymous": false,
      "inputs": [
        {
          "indexed": true,
          "internalType": "address",
          "name": "player",
          "type": "address"
        },
        {
          "indexed": false,
          "internalType": "uint256",
          "name": "amount",
          "type": "uint256"
        },
        {
          "indexed": false,
          "internalType": "uint8",
          "name": "teamSelected",
          "type": "uint8"
        }
      ],
      "name": "BetPlaced",
      "type": "event"
    },
    {
      "anonymous": false,
      "inputs": [
        {
          "indexed": false,
          "internalType": "uint16",
          "name": "winningTeam",
          "type": "uint16"
        }
      ],
      "name": "PrizesDistributed",
      "type": "event"
    },
    {
      "inputs": [],
      "name": "maxPlayers",
      "outputs": [
        {
          "internalType": "uint256",
          "name": "",
          "type": "uint256"
        }
      ],
      "stateMutability": "view",
      "type": "function",
      "constant": true
    },
    {
      "inputs": [],
      "name": "maximumBet",
      "outputs": [
        {
          "internalType": "uint256",
          "name": "",
          "type": "uint256"
        }
      ],
      "stateMutability": "view",
      "type": "function",
      "constant": true
    },
    {
      "inputs": [],
      "name": "minimumBet",
      "outputs": [
        {
          "internalType": "uint256",
          "name": "",
          "type": "uint256"
        }
      ],
      "stateMutability": "view",
      "type": "function",
      "constant": true
    },
    {
      "inputs": [],
      "name": "owner",
      "outputs": [
        {
          "internalType": "address",
          "name": "",
          "type": "address"
        }
      ],
      "stateMutability": "view",
      "type": "function",
      "constant": true
    },
    {
      "inputs": [
        {
          "internalType": "address",
          "name": "",
          "type": "address"
        }
      ],
      "name": "playerInfo",
      "outputs": [
        {
          "internalType": "uint256",
          "name": "amountBet",
          "type": "uint256"
        },
        {
          "internalType": "uint16",
          "name": "teamSelected",
          "type": "uint16"
        },
        {
          "internalType": "bytes32",
          "name": "commit",
          "type": "bytes32"
        },
        {
          "internalType": "bool",
          "name": "revealed",
          "type": "bool"
        }
      ],
      "stateMutability": "view",
      "type": "function",
      "constant": true
    },
    {
      "inputs": [
        {
          "internalType": "uint256",
          "name": "",
          "type": "uint256"
        }
      ],
      "name": "players",
      "outputs": [
        {
          "internalType": "address",
          "name": "",
          "type": "address"
        }
      ],
      "stateMutability": "view",
      "type": "function",
      "constant": true
    },
    {
      "inputs": [],
      "name": "totalBetsOne",
      "outputs": [
        {
          "internalType": "uint256",
          "name": "",
          "type": "uint256"
        }
      ],
      "stateMutability": "view",
      "type": "function",
      "constant": true
    },
    {
      "inputs": [],
      "name": "totalBetsTwo",
      "outputs": [
        {
          "internalType": "uint256",
          "name": "",
          "type": "uint256"
        }
      ],
      "stateMutability": "view",
      "type": "function",
      "constant": true
    },
    {
      "stateMutability": "payable",
      "type": "receive",
      "payable": true
    },
    {
      "inputs": [
        {
          "internalType": "bytes32",
          "name": "_commit",
          "type": "bytes32"
        }
      ],
      "name": "commitBet",
      "outputs": [],
      "stateMutability": "payable",
      "type": "function",
      "payable": true
    },
    {
      "inputs": [
        {
          "internalType": "uint8",
          "name": "_teamSelected",
          "type": "uint8"
        },
        {
          "internalType": "uint256",
          "name": "_nonce",
          "type": "uint256"
        }
      ],
      "name": "revealBet",
      "outputs": [],
      "stateMutability": "nonpayable",
      "type": "function"
    },
    {
      "inputs": [],
      "name": "kill",
      "outputs": [],
      "stateMutability": "nonpayable",
      "type": "function"
    },
    {
      "inputs": [
        {
          "internalType": "address",
          "name": "player",
          "type": "address"
        }
      ],
      "name": "checkPlayerExists",
      "outputs": [
        {
          "internalType": "bool",
          "name": "",
          "type": "bool"
        }
      ],
      "stateMutability": "view",
      "type": "function",
      "constant": true
    },
    {
      "inputs": [
        {
          "internalType": "uint16",
          "name": "teamWinner",
          "type": "uint16"
        }
      ],
      "name": "distributePrizes",
      "outputs": [],
      "stateMutability": "nonpayable",
      "type": "function"
    },
    {
      "inputs": [],
      "name": "AmountOne",
      "outputs": [
        {
          "internalType": "uint256",
          "name": "",
          "type": "uint256"
        }
      ],
      "stateMutability": "view",
      "type": "function",
      "constant": true
    },
    {
      "inputs": [],
      "name": "AmountTwo",
      "outputs": [
        {
          "internalType": "uint256",
          "name": "",
          "type": "uint256"
        }
      ],
      "stateMutability": "view",
      "type": "function",
      "constant": true
    }
  ],
  "bytecode": "0x608060405234801561001057600080fd5b50336000806101000a81548173ffffffffffffffffffffffffffffffffffffffff021916908373ffffffffffffffffffffffffffffffffffffffff160217905550655af3107a400060018190555068056bc75e2d631000006002819055506103e860058190555061260e806100866000396000f3fe6080604052600436106100ec5760003560e01c8063657335921161008a578063c38a8afd11610059578063c38a8afd146102e2578063c61a25d41461030d578063f71d96cb14610329578063fb66add014610366576100f3565b806365733592146102385780637904f688146102635780638afadeb51461028c5780638da5cb5b146102b7576100f3565b80634996d51d116100c65780634996d51d146101775780634b114691146101a25780634c2412a2146101e25780635bf6b19f1461020d576100f3565b8063227cade5146100f85780634081d9161461012357806341c0e1b514610160576100f3565b366100f357005b600080fd5b34801561010457600080fd5b5061010d61038f565b60405161011a919061193a565b60405180910390f35b34801561012f57600080fd5b5061014a600480360381019061014591906119b8565b610395565b6040516101579190611a00565b60405180910390f35b34801561016c57600080fd5b50610175610444565b005b34801561018357600080fd5b5061018c6106e2565b604051610199919061193a565b60405180910390f35b3480156101ae57600080fd5b506101c960048036038101906101c491906119b8565b6106ec565b6040516101d99493929190611a51565b60405180910390f35b3480156101ee57600080fd5b506101f7610737565b604051610204919061193a565b60405180910390f35b34801561021957600080fd5b5061022261073d565b60405161022f919061193a565b60405180910390f35b34801561024457600080fd5b5061024d610743565b60405161025a919061193a565b60405180910390f35b34801561026f57600080fd5b5061028a60048036038101906102859190611ac2565b61074d565b005b34801561029857600080fd5b506102a1610fc0565b6040516102ae919061193a565b60405180910390f35b3480156102c357600080fd5b506102cc610fc6565b6040516102d99190611afe565b60405180910390f35b3480156102ee57600080fd5b506102f7610fea565b604051610304919061193a565b60405180910390f35b61032760048036038101906103229190611b45565b610ff0565b005b34801561033557600080fd5b50610350600480360381019061034b9190611b9e565b61125a565b60405161035d9190611afe565b60405180910390f35b34801561037257600080fd5b5061038d60048036038101906103889190611c04565b611299565b005b60025481565b600080600090505b600680549050811015610439578273ffffffffffffffffffffffffffffffffffffffff16600682815481106103d5576103d4611c44565b5b9060005260206000200160009054906101000a900473ffffffffffffffffffffffffffffffffffffffff1673ffffffffffffffffffffffffffffffffffffffff16141561042657600191505061043f565b808061043190611ca2565b91505061039d565b50600090505b919050565b60008054906101000a900473ffffffffffffffffffffffffffffffffffffffff1673ffffffffffffffffffffffffffffffffffffffff163373ffffffffffffffffffffffffffffffffffffffff16146104d2576040517f08c379a00000000000000000000000000000000000000000000000000000000081526004016104c990611d6e565b60405180910390fd5b60005b60068054905081101561064d576000600682815481106104f8576104f7611c44565b5b9060005260206000200160009054906101000a900473ffffffffffffffffffffffffffffffffffffffff1690506000600760008373ffffffffffffffffffffffffffffffffffffffff1673ffffffffffffffffffffffffffffffffffffffff16815260200190815260200160002060000154905060008111156105bd578173ffffffffffffffffffffffffffffffffffffffff166108fc829081150290604051600060405180830381858888f193505050501580156105bb573d6000803e3d6000fd5b505b600760008373ffffffffffffffffffffffffffffffffffffffff1673ffffffffffffffffffffffffffffffffffffffff1681526020019081526020016000206000808201600090556001820160006101000a81549061ffff021916905560028201600090556003820160006101000a81549060ff021916905550505050808061064590611ca2565b9150506104d5565b505b600060068054905011156106a957600680548061066f5761066e611d8e565b5b6001900381819060005260206000200160006101000a81549073ffffffffffffffffffffffffffffffffffffffff0219169055905561064f565b60008054906101000a900473ffffffffffffffffffffffffffffffffffffffff1673ffffffffffffffffffffffffffffffffffffffff16ff5b6000600354905090565b60076020528060005260406000206000915090508060000154908060010160009054906101000a900461ffff16908060020154908060030160009054906101000a900460ff16905084565b60055481565b60045481565b6000600454905090565b60008054906101000a900473ffffffffffffffffffffffffffffffffffffffff1673ffffffffffffffffffffffffffffffffffffffff163373ffffffffffffffffffffffffffffffffffffffff16146107db576040517f08c379a00000000000000000000000000000000000000000000000000000000081526004016107d290611e09565b60405180910390fd5b60018161ffff1614806107f2575060028161ffff16145b610831576040517f08c379a000000000000000000000000000000000000000000000000000000000815260040161082890611e9b565b60405180910390fd5b60005b60068054905081101561092d5760006006828154811061085757610856611c44565b5b9060005260206000200160009054906101000a900473ffffffffffffffffffffffffffffffffffffffff1690506000600760008373ffffffffffffffffffffffffffffffffffffffff1673ffffffffffffffffffffffffffffffffffffffff16815260200190815260200160002060030160009054906101000a900460ff16905080610918576040517f08c379a000000000000000000000000000000000000000000000000000000000815260040161090f90611f07565b60405180910390fd5b5050808061092590611ca2565b915050610834565b507f3f44d9c0605f7f8017bb09393f269fe9e926c9e1fdc6fb8dcfd55bf6febad7348160405161095d9190611f27565b60405180910390a1600060035414801561097b575060018161ffff16145b8061099857506000600454148015610997575060028161ffff16145b5b15610b795760005b600680549050811015610b08576000600682815481106109c3576109c2611c44565b5b9060005260206000200160009054906101000a900473ffffffffffffffffffffffffffffffffffffffff1690508073ffffffffffffffffffffffffffffffffffffffff166108fc600760008473ffffffffffffffffffffffffffffffffffffffff1673ffffffffffffffffffffffffffffffffffffffff168152602001908152602001600020600001549081150290604051600060405180830381858888f19350505050158015610a78573d6000803e3d6000fd5b50600760008273ffffffffffffffffffffffffffffffffffffffff1673ffffffffffffffffffffffffffffffffffffffff1681526020019081526020016000206000808201600090556001820160006101000a81549061ffff021916905560028201600090556003820160006101000a81549060ff02191690555050508080610b0090611ca2565b9150506109a0565b505b60006006805490501115610b64576006805480610b2a57610b29611d8e565b5b6001900381819060005260206000200160006101000a81549073ffffffffffffffffffffffffffffffffffffffff02191690559055610b0a565b60006003819055506000600481905550610fbd565b610b816118fd565b6000806000805b600680549050811015610ca757600060068281548110610bab57610baa611c44565b5b9060005260206000200160009054906101000a900473ffffffffffffffffffffffffffffffffffffffff1690508661ffff16600760008373ffffffffffffffffffffffffffffffffffffffff1673ffffffffffffffffffffffffffffffffffffffff16815260200190815260200160002060010160009054906101000a900461ffff1661ffff161415610c93578086866103e88110610c4d57610c4c611c44565b5b602002019073ffffffffffffffffffffffffffffffffffffffff16908173ffffffffffffffffffffffffffffffffffffffff16815250508480610c8f90611ca2565b9550505b508080610c9f90611ca2565b915050610b88565b5060018561ffff161415610cc45760045491506003549050610cdd565b60028561ffff161415610cdc57600354915060045490505b5b60005b83811015610e6157600073ffffffffffffffffffffffffffffffffffffffff1685826103e88110610d1457610d13611c44565b5b602002015173ffffffffffffffffffffffffffffffffffffffff1614610e4e57600085826103e88110610d4a57610d49611c44565b5b602002015190506000600760008373ffffffffffffffffffffffffffffffffffffffff1673ffffffffffffffffffffffffffffffffffffffff1681526020019081526020016000206000015490506000610dd5612710610dc787610db96127108b61169090919063ffffffff16565b6116a690919063ffffffff16565b6116bc90919063ffffffff16565b90506000610e00612710610df2848661169090919063ffffffff16565b6116a690919063ffffffff16565b90508373ffffffffffffffffffffffffffffffffffffffff166108fc829081150290604051600060405180830381858888f19350505050158015610e48573d6000803e3d6000fd5b50505050505b8080610e5990611ca2565b915050610ce0565b5060005b600680549050811015610f4457600060068281548110610e8857610e87611c44565b5b9060005260206000200160009054906101000a900473ffffffffffffffffffffffffffffffffffffffff169050600760008273ffffffffffffffffffffffffffffffffffffffff1673ffffffffffffffffffffffffffffffffffffffff1681526020019081526020016000206000808201600090556001820160006101000a81549061ffff021916905560028201600090556003820160006101000a81549060ff02191690555050508080610f3c90611ca2565b915050610e65565b505b60006006805490501115610fa0576006805480610f6657610f65611d8e565b5b6001900381819060005260206000200160006101000a81549073ffffffffffffffffffffffffffffffffffffffff02191690559055610f46565b600091506000905060006003819055506000600481905550505050505b50565b60035481565b60008054906101000a900473ffffffffffffffffffffffffffffffffffffffff1681565b60015481565b610ff933610395565b15611039576040517f08c379a000000000000000000000000000000000000000000000000000000000815260040161103090611f8e565b60405180910390fd5b60055460068054905010611082576040517f08c379a000000000000000000000000000000000000000000000000000000000815260040161107990612020565b60405180910390fd5b6001543410156110936001546116d2565b6040516020016110a3919061212c565b604051602081830303815290604052906110f3576040517f08c379a00000000000000000000000000000000000000000000000000000000081526004016110ea9190612198565b60405180910390fd5b506002543411156111056002546116d2565b604051602001611115919061222c565b60405160208183030381529060405290611165576040517f08c379a000000000000000000000000000000000000000000000000000000000815260040161115c9190612198565b60405180910390fd5b5080600760003373ffffffffffffffffffffffffffffffffffffffff1673ffffffffffffffffffffffffffffffffffffffff1681526020019081526020016000206002018190555034600760003373ffffffffffffffffffffffffffffffffffffffff1673ffffffffffffffffffffffffffffffffffffffff168152602001908152602001600020600001819055506006339080600181540180825580915050600190039060005260206000200160009091909190916101000a81548173ffffffffffffffffffffffffffffffffffffffff021916908373ffffffffffffffffffffffffffffffffffffffff16021790555050565b6006818154811061126a57600080fd5b906000526020600020016000915054906101000a900473ffffffffffffffffffffffffffffffffffffffff1681565b6112a233610395565b6112e1576040517f08c379a00000000000000000000000000000000000000000000000000000000081526004016112d89061229a565b60405180910390fd5b600760003373ffffffffffffffffffffffffffffffffffffffff1673ffffffffffffffffffffffffffffffffffffffff16815260200190815260200160002060030160009054906101000a900460ff1615611371576040517f08c379a00000000000000000000000000000000000000000000000000000000081526004016113689061232c565b60405180910390fd5b600082826040516020016113869291906123a3565b60405160208183030381529060405280519060200120905080600760003373ffffffffffffffffffffffffffffffffffffffff1673ffffffffffffffffffffffffffffffffffffffff1681526020019081526020016000206002015414611422576040517f08c379a000000000000000000000000000000000000000000000000000000000815260040161141990612441565b60405180910390fd5b60018360ff161480611437575060028360ff16145b611476576040517f08c379a000000000000000000000000000000000000000000000000000000000815260040161146d90611e9b565b60405180910390fd5b8260ff16600760003373ffffffffffffffffffffffffffffffffffffffff1673ffffffffffffffffffffffffffffffffffffffff16815260200190815260200160002060010160006101000a81548161ffff021916908361ffff1602179055506001600760003373ffffffffffffffffffffffffffffffffffffffff1673ffffffffffffffffffffffffffffffffffffffff16815260200190815260200160002060030160006101000a81548160ff02191690831515021790555060018360ff16141561159d57600760003373ffffffffffffffffffffffffffffffffffffffff1673ffffffffffffffffffffffffffffffffffffffff16815260200190815260200160002060000154600360008282546115919190612461565b925050819055506115f9565b600760003373ffffffffffffffffffffffffffffffffffffffff1673ffffffffffffffffffffffffffffffffffffffff16815260200190815260200160002060000154600460008282546115f19190612461565b925050819055505b3373ffffffffffffffffffffffffffffffffffffffff167f7df19a783369d9cefb06e18b396518f817b48766b74157758eda633a62f58fa7600760003373ffffffffffffffffffffffffffffffffffffffff1673ffffffffffffffffffffffffffffffffffffffff16815260200190815260200160002060000154856040516116839291906124c6565b60405180910390a2505050565b6000818361169e91906124ef565b905092915050565b600081836116b49190612578565b905092915050565b600081836116ca9190612461565b905092915050565b6060600060016116e1846117aa565b01905060008167ffffffffffffffff811115611700576116ff6125a9565b5b6040519080825280601f01601f1916602001820160405280156117325781602001600182028036833780820191505090505b509050600082602001820190505b60011561179f578080600190039150507f3031323334353637383961626364656600000000000000000000000000000000600a86061a8153600a858161178957611788612549565b5b049450600085141561179a5761179f565b611740565b819350505050919050565b600080600090507a184f03e93ff9f4daa797ed6e38ed64bf6a1f0100000000000000008310611808577a184f03e93ff9f4daa797ed6e38ed64bf6a1f01000000000000000083816117fe576117fd612549565b5b0492506040810190505b6d04ee2d6d415b85acef81000000008310611845576d04ee2d6d415b85acef8100000000838161183b5761183a612549565b5b0492506020810190505b662386f26fc10000831061187457662386f26fc10000838161186a57611869612549565b5b0492506010810190505b6305f5e100831061189d576305f5e100838161189357611892612549565b5b0492506008810190505b61271083106118c25761271083816118b8576118b7612549565b5b0492506004810190505b606483106118e557606483816118db576118da612549565b5b0492506002810190505b600a83106118f4576001810190505b80915050919050565b60405180617d0001604052806103e890602082028036833780820191505090505090565b6000819050919050565b61193481611921565b82525050565b600060208201905061194f600083018461192b565b92915050565b600080fd5b600073ffffffffffffffffffffffffffffffffffffffff82169050919050565b60006119858261195a565b9050919050565b6119958161197a565b81146119a057600080fd5b50565b6000813590506119b28161198c565b92915050565b6000602082840312156119ce576119cd611955565b5b60006119dc848285016119a3565b91505092915050565b60008115159050919050565b6119fa816119e5565b82525050565b6000602082019050611a1560008301846119f1565b92915050565b600061ffff82169050919050565b611a3281611a1b565b82525050565b6000819050919050565b611a4b81611a38565b82525050565b6000608082019050611a66600083018761192b565b611a736020830186611a29565b611a806040830185611a42565b611a8d60608301846119f1565b95945050505050565b611a9f81611a1b565b8114611aaa57600080fd5b50565b600081359050611abc81611a96565b92915050565b600060208284031215611ad857611ad7611955565b5b6000611ae684828501611aad565b91505092915050565b611af88161197a565b82525050565b6000602082019050611b136000830184611aef565b92915050565b611b2281611a38565b8114611b2d57600080fd5b50565b600081359050611b3f81611b19565b92915050565b600060208284031215611b5b57611b5a611955565b5b6000611b6984828501611b30565b91505092915050565b611b7b81611921565b8114611b8657600080fd5b50565b600081359050611b9881611b72565b92915050565b600060208284031215611bb457611bb3611955565b5b6000611bc284828501611b89565b91505092915050565b600060ff82169050919050565b611be181611bcb565b8114611bec57600080fd5b50565b600081359050611bfe81611bd8565b92915050565b60008060408385031215611c1b57611c1a611955565b5b6000611c2985828601611bef565b9250506020611c3a85828601611b89565b9150509250929050565b7f4e487b7100000000000000000000000000000000000000000000000000000000600052603260045260246000fd5b7f4e487b7100000000000000000000000000000000000000000000000000000000600052601160045260246000fd5b6000611cad82611921565b91507fffffffffffffffffffffffffffffffffffffffffffffffffffffffffffffffff821415611ce057611cdf611c73565b5b600182019050919050565b600082825260208201905092915050565b7f4f6e6c79206f776e65722063616e206578656375746520746869732066756e6360008201527f74696f6e2e000000000000000000000000000000000000000000000000000000602082015250565b6000611d58602583611ceb565b9150611d6382611cfc565b604082019050919050565b60006020820190508181036000830152611d8781611d4b565b9050919050565b7f4e487b7100000000000000000000000000000000000000000000000000000000600052603160045260246000fd5b7f4f6e6c79206f776e65722063616e2064697374726962757465207072697a6573600082015250565b6000611df3602083611ceb565b9150611dfe82611dbd565b602082019050919050565b60006020820190508181036000830152611e2281611de6565b9050919050565b7f506c6561736520656e7465722031206f72203220666f72207468652074776f2060008201527f7465616d73000000000000000000000000000000000000000000000000000000602082015250565b6000611e85602583611ceb565b9150611e9082611e29565b604082019050919050565b60006020820190508181036000830152611eb481611e78565b9050919050565b7f4e6f7420616c6c20706c617965727320686176652072657665616c65642e0000600082015250565b6000611ef1601e83611ceb565b9150611efc82611ebb565b602082019050919050565b60006020820190508181036000830152611f2081611ee4565b9050919050565b6000602082019050611f3c6000830184611a29565b92915050565b7f506c6179657220616c7265616479206578697374732e00000000000000000000600082015250565b6000611f78601683611ceb565b9150611f8382611f42565b602082019050919050565b60006020820190508181036000830152611fa781611f6b565b9050919050565b7f4d6178696d756d206e756d626572206f6620706c61796572732072656163686560008201527f642e000000000000000000000000000000000000000000000000000000000000602082015250565b600061200a602283611ceb565b915061201582611fae565b604082019050919050565b6000602082019050818103600083015261203981611ffd565b9050919050565b600081905092915050565b7f4265742076616c7565206d75737420626520686967686572207468616e20746860008201527f65206d696e696d756d20626574206f6620000000000000000000000000000000602082015250565b60006120a7603183612040565b91506120b28261204b565b603182019050919050565b600081519050919050565b60005b838110156120e65780820151818401526020810190506120cb565b838111156120f5576000848401525b50505050565b6000612106826120bd565b6121108185612040565b93506121208185602086016120c8565b80840191505092915050565b60006121378261209a565b915061214382846120fb565b915081905092915050565b6000601f19601f8301169050919050565b600061216a826120bd565b6121748185611ceb565b93506121848185602086016120c8565b61218d8161214e565b840191505092915050565b600060208201905081810360008301526121b2818461215f565b905092915050565b7f4265742076616c7565206d757374206265206c6f776572207468616e2074686560008201527f206d6178696d756d20626574206f662000000000000000000000000000000000602082015250565b6000612216603083612040565b9150612221826121ba565b603082019050919050565b600061223782612209565b915061224382846120fb565b915081905092915050565b7f506c6179657220646f65736e27742065786973742e0000000000000000000000600082015250565b6000612284601583611ceb565b915061228f8261224e565b602082019050919050565b600060208201905081810360008301526122b381612277565b9050919050565b7f506c617965722068617320616c72656164792072657665616c6564207468656960008201527f72206265742e0000000000000000000000000000000000000000000000000000602082015250565b6000612316602683611ceb565b9150612321826122ba565b604082019050919050565b6000602082019050818103600083015261234581612309565b9050919050565b60008160f81b9050919050565b60006123648261234c565b9050919050565b61237c61237782611bcb565b612359565b82525050565b6000819050919050565b61239d61239882611921565b612382565b82525050565b60006123af828561236b565b6001820191506123bf828461238c565b6020820191508190509392505050565b7f50726f7669646564206265742064657461696c7320646f206e6f74206d61746360008201527f682074686520636f6d6d69742e00000000000000000000000000000000000000602082015250565b600061242b602d83611ceb565b9150612436826123cf565b604082019050919050565b6000602082019050818103600083015261245a8161241e565b9050919050565b600061246c82611921565b915061247783611921565b9250827fffffffffffffffffffffffffffffffffffffffffffffffffffffffffffffffff038211156124ac576124ab611c73565b5b828201905092915050565b6124c081611bcb565b82525050565b60006040820190506124db600083018561192b565b6124e860208301846124b7565b9392505050565b60006124fa82611921565b915061250583611921565b9250817fffffffffffffffffffffffffffffffffffffffffffffffffffffffffffffffff048311821515161561253e5761253d611c73565b5b828202905092915050565b7f4e487b7100000000000000000000000000000000000000000000000000000000600052601260045260246000fd5b600061258382611921565b915061258e83611921565b92508261259e5761259d612549565b5b828204905092915050565b7f4e487b7100000000000000000000000000000000000000000000000000000000600052604160045260246000fdfea2646970667358221220eeb32f47cb7397b71e35168dd94c466061ec6762d17d8bfea1124ea8b65ee15664736f6c634300080c0033",
  "immutableReferences": {},
  "source": "pragma solidity ^0.8.12;\n// SPDX-License-Identifier: GPL-3.0\n// Testing Purposes: Hash(Team, Nonce)\n// Hash(1, 1) = 0x9b68e489a07c86105b2c34adda59d3851d6f33abd41be6e9559cf783147db5dd\n// Hash(2, 1) = 0xc22f283e315b25ded781f41aadc4cc3421da0afd0704feaae04c34a9dfc55ac6\n\nimport \"@openzeppelin/contracts/utils/math/SafeMath.sol\";\nimport \"@openzeppelin/contracts/utils/Strings.sol\"; //For uint to string conversion\nimport \"@openzeppelin/contracts/utils/cryptography/ECDSA.sol\";\ncontract bettingApp {\n    using SafeMath for uint256;\n    using ECDSA for bytes32;\n    address public owner;\n    uint256 public minimumBet;\n    uint256 public maximumBet;\n    uint256 public totalBetsOne;\n    uint256 public totalBetsTwo;\n    uint256 public maxPlayers;\n    address[] public players;\n\n    struct Player {\n        uint256 amountBet;\n        uint16 teamSelected;\n        bytes32 commit;\n        bool revealed;\n    }\n\n    event BetPlaced(address indexed player, uint256 amount, uint8 teamSelected);\n    event PrizesDistributed(uint16 winningTeam);\n    // The address of the player and => the user info\n    mapping(address => Player) public playerInfo;\n    receive() external payable {}\n    \n    constructor() {\n        owner = msg.sender;\n        minimumBet = 100000000000000; //0.0001 ether\n        maximumBet = 100000000000000000000; //100 ether\n        maxPlayers = 1000;\n    }\n\n    function commitBet(bytes32 _commit) public payable {\n        require(!checkPlayerExists(msg.sender), \"Player already exists.\");\n        require(players.length < maxPlayers, \"Maximum number of players reached.\");\n        require(msg.value >= minimumBet, string.concat(\"Bet value must be higher than the minimum bet of \", Strings.toString(minimumBet)));\n        require(msg.value <= maximumBet, string.concat(\"Bet value must be lower than the maximum bet of \", Strings.toString(maximumBet)));\n\n        playerInfo[msg.sender].commit = _commit;\n        playerInfo[msg.sender].amountBet = msg.value;\n        players.push(msg.sender);\n    }\n\n    function revealBet(uint8 _teamSelected, uint256 _nonce) public {\n        require(checkPlayerExists(msg.sender), \"Player doesn't exist.\");\n        require(!playerInfo[msg.sender].revealed, \"Player has already revealed their bet.\");\n\n        bytes32 computedHash = keccak256(abi.encodePacked(_teamSelected, _nonce));\n\n        require(playerInfo[msg.sender].commit == computedHash, \"Provided bet details do not match the commit.\");\n\n        // The bets should be either team 1 or team 2\n        require(_teamSelected == 1 || _teamSelected == 2, \"Please enter 1 or 2 for the two teams\");\n\n        // We set the player information: selected team\n        playerInfo[msg.sender].teamSelected = _teamSelected;\n        playerInfo[msg.sender].revealed = true;\n\n        // At the end, we increment the stakes of the team selected with the player bet\n        if (_teamSelected == 1) {\n            totalBetsOne += playerInfo[msg.sender].amountBet;\n        } else {\n            totalBetsTwo += playerInfo[msg.sender].amountBet;\n        }\n\n        emit BetPlaced(msg.sender, playerInfo[msg.sender].amountBet, _teamSelected);\n    }\n\n    function kill() public {\n        require(msg.sender == owner, \"Only owner can execute this function.\");\n\n        // Refund each player's bet\n        for (uint256 i = 0; i < players.length; i++) {\n            address payable playerAddress = payable(players[i]);\n            uint256 playerbet = playerInfo[playerAddress].amountBet;\n\n            if (playerbet > 0) {\n                playerAddress.transfer(playerbet);\n            }\n            delete playerInfo[playerAddress];\n        }\n\n        while (players.length > 0) {\n            players.pop();\n        }\n\n        // Destroy the contract and send any remaining balance to the owner\n        selfdestruct(payable(owner));\n    }\n\n    function checkPlayerExists(address player) public view returns(bool){\n        for(uint256 i = 0; i < players.length; i++){\n            if(players[i] == player) return true;\n        }\n        return false;\n    }\n\n    // Generates a number between 1 and 10 that will be the winner\n    function distributePrizes(uint16 teamWinner) public {\n        \n        require(msg.sender == owner, \"Only owner can distribute prizes\");\n        require(teamWinner == 1 || teamWinner == 2, \"Please enter 1 or 2 for the two teams\");\n        for (uint256 i = 0; i < players.length; i++) {\n            address payable playerAddress = payable(players[i]);\n            bool reveal = playerInfo[playerAddress].revealed;\n            require(reveal, \"Not all players have revealed.\");\n        }\n        emit PrizesDistributed(teamWinner);\n        //If no one bet on the winning team, return everyone's bets\n        if((totalBetsOne==0 && teamWinner==1) || (totalBetsTwo==0 && teamWinner==2)){ \n            for (uint256 i = 0; i < players.length; i++) {\n                address payable playerAddress = payable(players[i]);\n                playerAddress.transfer(playerInfo[playerAddress].amountBet);\n                delete playerInfo[playerAddress];\n            }\n            while (players.length > 0) {\n                players.pop();\n            }\n            totalBetsOne = 0;\n            totalBetsTwo = 0;\n            return;\n        }\n        //Else, give the winners their prizes\n        address[1000] memory winners;\n        //We have to create a temporary in-memory array with fixed size\n        //Let's choose 1000\n        uint256 count = 0; // This is the count for the array of winners\n        uint256 LoserBet = 0; //This will take the value of all losers bet\n        uint256 WinnerBet = 0; //This will take the value of all winners bet\n\n        //We loop through the player array to check who selected the winner team\n        for(uint256 i = 0; i < players.length; i++){\n            address playerAddress = players[i];\n\n            //If the player selected the winner team\n            //We add his address to the winners array\n            if(playerInfo[playerAddress].teamSelected == teamWinner){\n                winners[count] = playerAddress;\n                count++;\n            }\n        }\n\n        //We define which bet sum is the Loser one and which one is the winner\n        if (teamWinner == 1){\n            LoserBet = totalBetsTwo;\n            WinnerBet = totalBetsOne;\n        }\n        else if (teamWinner == 2){\n            LoserBet = totalBetsOne;\n            WinnerBet = totalBetsTwo;\n        }\n\n        //We loop through the array of winners, to give ethers to the winners\n        for(uint256 j = 0; j < count; j++){\n            // Check that the address in this fixed array is not empty\n            if(winners[j] != address(0)){\n                address payable add = payable(winners[j]);\n                uint256 playerbet = playerInfo[add].amountBet;\n                \n                //add.transfer((playerbet * (10000 + (LoserBet * 10000 / WinnerBet))) / 10000); //still has some rounding error\n                //LoserBet * 10000 may be a large value, but it is never larger than uint256's max (115792089237316195423570985008687907853269984665640564039457584007913129639935)\n                //as the number of players is limited to 1000 (max loser is 999) and the max wei is 100000000000000000000\n                //Transfer the money to the user, using safemath to avoid integer overflow doesn't work\n                uint256 intermediateResult = LoserBet.mul(10000).div(WinnerBet).add(10000);\n                uint256 result = playerbet.mul(intermediateResult).div(10000);\n                add.transfer(result);\n                //note to self: without 10000: playbet + playerbet*LoserBet/WinnerBet\n                //add.transfer(playerbet.mul((LoserBet.mul(10000).div(WinnerBet).add(10000)).div(10000))); doesn't produce correct result\n            }\n        }\n        for (uint256 i = 0; i < players.length; i++) {\n            address playerAddress = players[i];\n            delete playerInfo[playerAddress]; // Delete all the players\n        }\n        while (players.length > 0) {\n            players.pop();\n        } // Delete all the players array\n        LoserBet = 0; //reinitialize the bets\n        WinnerBet = 0;\n        totalBetsOne = 0;\n        totalBetsTwo = 0;\n    }\n    function AmountOne() public view returns(uint256){\n        return totalBetsOne;\n    }\n\n    function AmountTwo() public view returns(uint256){\n        return totalBetsTwo;\n    }\n}\n",
  "sourcePath": "/Users/adg516/Documents/csce 489 blockchain/project/sports-betting-489/test/contracts/bettingApp.sol",
  "compiler": {
    "name": "solc",
    "version": "0.8.12+commit.f00d7308.Emscripten.clang"
  },
  "schemaVersion": "3.4.13",
  "updatedAt": "2023-04-13T00:41:56.788Z",
  "networkType": "ethereum",
  "devdoc": {
    "kind": "dev",
    "methods": {},
    "version": 1
  },
  "userdoc": {
    "kind": "user",
    "methods": {},
    "version": 1
  }
}